:020000040800F2
:10000000008001206D080008BF080008CD08000826
:10001000D3080008D9080008DF0800080000000025
:10002000000000000000000000000000E5080008DB
:10003000F308000800000000010900080F0900088B
:10004000BD080008BD080008BD080008BD0800087C
:10005000BD080008BD080008BD080008BD0800086C
:10006000BD080008BD080008BD080008BD0800085C
:10007000BD080008BD080008BD080008BD0800084C
:10008000BD080008BD080008BD080008BD0800083C
:10009000BD080008BD080008BD080008BD0800082C
:1000A000BD080008BD080008BD080008BD0800081C
:1000B000BD080008BD080008BD080008BD0800080C
:1000C000BD080008BD080008BD080008BD080008FC
:1000D000BD080008BD080008BD080008BD080008EC
:1000E000BD080008BD080008BD080008BD080008DC
:1000F000BD080008BD080008BD080008BD080008CC
:10010000BD080008BD080008BD080008BD080008BB
:10011000BD080008BD080008BD080008BD080008AB
:10012000BD080008BD080008BD080008BD0800089B
:10013000BD080008BD080008BD080008BD0800088B
:10014000BD080008BD080008BD080008BD0800087B
:10015000BD080008BD080008BD080008BD0800086B
:10016000BD080008BD080008BD080008BD0800085B
:10017000BD080008BD080008BD080008BD0800084B
:08018000BD080008BD080008DD
:1001880010B5054C237833B9044B13B10448AFF3C9
:1001980000800123237010BD000000200000000033
:1001A800C80A000808B5034B1BB103490348AFF35D
:1001B800008008BD0000000004000020C80A0008F4
:1001C80080B485B000AF786039600023FB600023FD
:1001D800FB727B685B68FB60FB6823F0407323F469
:1001E8008073FB603B681B791A023B681B681343EA
:1001F800FA681343FB607B68FA685A607B689B68FF
:10020800FB60FA68184B1340FB603B681A693B684F
:10021800DB681A433B689B681A433B685B795B0061
:100228001343FA681343FB607B68FA689A607B683B
:10023800DB6AFB60FB6823F47003FB603B681B7D93
:10024800013BDAB2FB7A1343FB72FB7A1B05FA68AF
:100258001343FB607B68FA68DA6200BF1437BD4657
:100268005DF8047B704700BFFDF7FFC080B485B020
:1002780000AF78600023FB600E4B5B68FB60FA6898
:100288000D4B1340FB607B681A687B685B681A43F8
:100298007B689B681A437B68DB681343FA681343DF
:1002A800FB60044AFB68536000BF1437BD465DF825
:1002B800047B704700230140E030FCFF80B483B02A
:1002C80000AF78600B46FB70FB78002B06D07B688C
:1002D8009B6843F001027B689A6005E07B689B6835
:1002E80023F001027B689A6000BF0C37BD465DF8B9
:1002F800047B704780B485B000AF7860084611462B
:100308001A460346FB700B46BB7013467B700023EE
:10031800FB600023BB60FB78092B23D97B68DB6873
:10032800FB60FB78A3F10A0213465B001344072223
:1003380002FA03F3BB60BB68DB43FA681340FB6057
:100348007978FB78A3F10A0213465B00134401FA9B
:1003580003F3BB60FA68BB681343FB607B68FA6809
:10036800DA601EE07B681B69FB60FA7813465B0065
:100378001344072202FA03F3BB60BB68DB43FA6845
:100388001340FB607978FA7813465B00134401FA4E
:1003980003F3BB60FA68BB681343FB607B68FA68C9
:1003A8001A61BB78062B21D87B685B6BFB60BB7836
:1003B8005A1E13469B0013441F2202FA03F3BB6024
:1003C800BB68DB43FA681340FB60F978BB785A1EB8
:1003D80013469B00134401FA03F3BB60FA68BB6839
:1003E8001343FB607B68FA685A6347E0BB780C2BC1
:1003F80021D87B681B6BFB60BB78DA1F13469B0018
:1004080013441F2202FA03F3BB60BB68DB43FA689C
:100418001340FB60F978BB78DA1F13469B0013443E
:1004280001FA03F3BB60FA68BB681343FB607B689F
:10043800FA681A6322E07B68DB6AFB60BB78A3F189
:100448000D0213469B0013441F2202FA03F3BB60FC
:10045800BB68DB43FA681340FB60F978BB78A3F10B
:100468000D0213469B00134401FA03F3BB60FA68BC
:10047800BB681343FB607B68FA68DA6200BF143715
:10048800BD465DF8047B704780B483B000AF7860E8
:100498007B689B6843F080427B689A6000BF0C379A
:1004A800BD465DF8047B704780B483B000AF7860C8
:1004B8007B68DB6C9BB218460C37BD465DF8047B45
:1004C800704780B485B000AF78600B46FB7000239E
:1004D800FB737B681A68FB781340002B02D001235A
:1004E800FB7301E00023FB73FB7B18461437BD4602
:1004F8005DF8047B704780B487B000AF78603960DE
:1005080000237B6100233B610023FB6000237B61A8
:1005180076E001227B6902FA03F33B613B681A68C3
:100528003B691340FB60FA683B699A4265D17B6876
:100538001A687B695B00032101FA03F3DB431A4065
:100548007B681A607B681A683B681B7919467B6967
:100558005B0001FA03F31A437B681A603B681B7956
:10056800012B03D03B681B79022B2ED17B689A683C
:100578007B695B00032101FA03F3DB431A407B68C4
:100588009A607B689A683B685B7919467B695B006F
:1005980001FA03F31A437B689A607B685A687B699F
:1005A8009BB2194601238B40DB431A407B685A6093
:1005B8007B685B683A68927911467A6992B201FA67
:1005C80002F292B21A437B685A607B68DA687B69E8
:1005D8009BB25B00032101FA03F3DB431A407B68FB
:1005E800DA607B68DA683B68DB7919467B695B000F
:1005F80001FA03F31A437B68DA607B6901337B6194
:100608007B690F2B85D900BF1C37BD465DF8047B7D
:10061800704780B483B000AF78600B467B807B68FE
:100628007A881A8300BF0C37BD465DF8047B704793
:1006380080B483B000AF78600B467B807B687A8893
:100648005A8300BF0C37BD465DF8047B7047000035
:1006580080B483B000AF78600B46FB70FB78002B4A
:1006680006D00A49094B1A6B7B6813430B6306E0F3
:100678000649064B1A6B7B68DB4313400B6300BFCC
:100688000C37BD465DF8047B704700BF0038024058
:1006980080B483B000AF78600B46FB70FB78002B0A
:1006A80006D00A49094B5A6C7B6813434B6406E031
:1006B8000649064B5A6C7B68DB4313404B6400BF0A
:1006C8000C37BD465DF8047B704700BF0038024018
:1006D80080B500AF01210120FFF7BAFF164B0322B6
:1006E8001A71154B01221A60134B00229A71124B92
:1006F8000022DA71104B03225A710F490F48FFF795
:10070800FAFE0D4B01221A710B4B0E221A600A4B8E
:1007180000229A71084B0022DA71074B03225A71A2
:100728004FF6FF710548FFF783FF03490348FFF7BA
:10073800E2FE00BF80BD00BF48000020000002406C
:1007480080B500AF01214FF48070FFF7A1FF0B4B7C
:1007580000221A60094B4FF480325A600748FFF7AD
:1007680085FD074B00221A6005490648FFF728FD5A
:1007780001210448FFF7A2FD00BF80BD1C00002036
:10078800300000200020014080B500AF0323012283
:1007980000210A48FFF7AEFD0848FFF775FE00BFC5
:1007A80002210648FFF78DFE0346002BF8D00348C8
:1007B800FFF77AFE0346184680BD00BF00200140BF
:1007C80080B500AFFFF784FFFFF7BAFFFFF7DCFF44
:1007D80003461A46214B1A80204B1B88B3F5617FCC
:1007E8000CD204211E48FFF714FF02211C48FFF712
:1007F8001FFF08211A48FFF71BFFE7E7174B1B8865
:10080800B3F5617F8CBF01230023DAB2134B1B8839
:1008180040F6C3118B4294BF01230023DBB213407F
:10082800DBB2002B0CD002210D48FFF7F2FE0421A9
:100838000B48FFF7FDFE08210948FFF7F9FEC5E759
:1008480008210748FFF7E5FE04210548FFF7F0FEF9
:1008580002210348FFF7ECFEB8E700BF2C00002098
:1008680000000240DFF834D0002103E00C4B5B5855
:10087800435004310B480C4B42189A42F6D30B4AAA
:1008880002E0002342F8043B094B9A42F9D300F0F6
:1008980041F800F0F1F8FFF793FF7047008001205E
:1008A800E80A0008000000200000002000000020E6
:1008B80050000020FEE780B400AF00BFBD465DF8E1
:1008C800047B704780B400AFFEE780B400AFFEE75A
:1008D80080B400AFFEE780B400AFFEE780B400AF9D
:1008E80000BFBD465DF8047B704780B400AF00BF11
:1008F800BD465DF8047B704780B400AF00BFBD46BD
:100908005DF8047B704780B400AF00BFBD465DF85A
:10091800047B704780B500AF164A164BD3F8883071
:1009280043F47003C2F88830134A134B1B6843F032
:1009380001031360104B00229A600F4A0E4B1B688C
:1009480023F0847323F4803313600B4B0B4A5A60F3
:10095800094A094B1B6823F480231360064B0022C5
:10096800DA6000F00DF8034B4FF000629A6000BFA8
:1009780080BD00BF00ED00E00038024010300024C8
:1009880080B483B000AF00237B6000233B60364A0D
:10099800354B1B6843F480331360334B1B6803F4F7
:1009A80000333B607B6801337B603B68002B03D1DD
:1009B8007B68B3F5A06FF0D12B4B1B6803F40033B1
:1009C800002B02D001233B6001E000233B603B6821
:1009D800012B42D1244A244B1B6C43F080531364EF
:1009E800224A224B1B6843F4404313601E4A1E4BA5
:1009F8009B6893601C4A1C4B9B6843F400439360BC
:100A0800194A194B9B6843F4A0539360164B184A34
:100A18005A60154A144B1B6843F08073136000BF7B
:100A2800114B1B6803F00073002BF9D0114B40F2F7
:100A380005721A600C4A0C4B9B6823F00303936001
:100A4800094A094B9B6843F00203936000BF064BB9
:100A58009B6803F00C03082BF9D100BF0C37BD4687
:100A68005DF8047B704700BF00380240007000400A
:100A780019544007003C024070B50D4E0D4CA41BA4
:100A8800A4100025A54209D10B4E0C4C00F018F813
:100A9800A41BA4100025A54205D170BD56F8253029
:100AA80098470135EEE756F8253098470135F2E7C3
:100AB800E00A0008E00A0008E00A0008E40A000862
:100AC800F8B500BFF8BC08BC9E467047F8B500BF33
:080AD800F8BC08BC9E46704703
:040AE000AD0100085C
:040AE400890100087C
:040000050800086D7A
:00000001FF
